{
  "_format": "hh-sol-artifact-1",
  "contractName": "NFTMarketplace",
  "sourceName": "contracts/NFTSmartContract.sol",
  "abi": [
    {
      "inputs": [],
      "stateMutability": "nonpayable",
      "type": "constructor"
    },
    {
      "anonymous": false,
      "inputs": [
        {
          "indexed": true,
          "internalType": "address",
          "name": "owner",
          "type": "address"
        },
        {
          "indexed": true,
          "internalType": "address",
          "name": "approved",
          "type": "address"
        },
        {
          "indexed": true,
          "internalType": "uint256",
          "name": "tokenId",
          "type": "uint256"
        }
      ],
      "name": "Approval",
      "type": "event"
    },
    {
      "anonymous": false,
      "inputs": [
        {
          "indexed": true,
          "internalType": "address",
          "name": "owner",
          "type": "address"
        },
        {
          "indexed": true,
          "internalType": "address",
          "name": "operator",
          "type": "address"
        },
        {
          "indexed": false,
          "internalType": "bool",
          "name": "approved",
          "type": "bool"
        }
      ],
      "name": "ApprovalForAll",
      "type": "event"
    },
    {
      "anonymous": false,
      "inputs": [
        {
          "indexed": true,
          "internalType": "address",
          "name": "from",
          "type": "address"
        },
        {
          "indexed": true,
          "internalType": "address",
          "name": "to",
          "type": "address"
        },
        {
          "indexed": true,
          "internalType": "uint256",
          "name": "tokenId",
          "type": "uint256"
        }
      ],
      "name": "Transfer",
      "type": "event"
    },
    {
      "anonymous": false,
      "inputs": [
        {
          "indexed": true,
          "internalType": "uint256",
          "name": "tokenId",
          "type": "uint256"
        },
        {
          "indexed": false,
          "internalType": "address",
          "name": "seller",
          "type": "address"
        },
        {
          "indexed": false,
          "internalType": "address",
          "name": "owner",
          "type": "address"
        },
        {
          "indexed": false,
          "internalType": "uint256",
          "name": "price",
          "type": "uint256"
        },
        {
          "indexed": false,
          "internalType": "bool",
          "name": "sold",
          "type": "bool"
        }
      ],
      "name": "idMarketItemCreated",
      "type": "event"
    },
    {
      "inputs": [
        {
          "internalType": "address",
          "name": "to",
          "type": "address"
        },
        {
          "internalType": "uint256",
          "name": "tokenId",
          "type": "uint256"
        }
      ],
      "name": "approve",
      "outputs": [],
      "stateMutability": "nonpayable",
      "type": "function"
    },
    {
      "inputs": [
        {
          "internalType": "address",
          "name": "owner",
          "type": "address"
        }
      ],
      "name": "balanceOf",
      "outputs": [
        {
          "internalType": "uint256",
          "name": "",
          "type": "uint256"
        }
      ],
      "stateMutability": "view",
      "type": "function"
    },
    {
      "inputs": [
        {
          "internalType": "uint256",
          "name": "tokenId",
          "type": "uint256"
        }
      ],
      "name": "createMarketSale",
      "outputs": [],
      "stateMutability": "payable",
      "type": "function"
    },
    {
      "inputs": [
        {
          "internalType": "string",
          "name": "tokenURI",
          "type": "string"
        },
        {
          "internalType": "uint256",
          "name": "price",
          "type": "uint256"
        }
      ],
      "name": "createToken",
      "outputs": [
        {
          "internalType": "uint256",
          "name": "",
          "type": "uint256"
        }
      ],
      "stateMutability": "payable",
      "type": "function"
    },
    {
      "inputs": [],
      "name": "fetchItemsListed",
      "outputs": [
        {
          "components": [
            {
              "internalType": "uint256",
              "name": "tokenId",
              "type": "uint256"
            },
            {
              "internalType": "address payable",
              "name": "seller",
              "type": "address"
            },
            {
              "internalType": "address payable",
              "name": "owner",
              "type": "address"
            },
            {
              "internalType": "uint256",
              "name": "price",
              "type": "uint256"
            },
            {
              "internalType": "bool",
              "name": "sold",
              "type": "bool"
            }
          ],
          "internalType": "struct NFTMarketplace.MarketItem[]",
          "name": "",
          "type": "tuple[]"
        }
      ],
      "stateMutability": "view",
      "type": "function"
    },
    {
      "inputs": [],
      "name": "fetchMarketItem",
      "outputs": [
        {
          "components": [
            {
              "internalType": "uint256",
              "name": "tokenId",
              "type": "uint256"
            },
            {
              "internalType": "address payable",
              "name": "seller",
              "type": "address"
            },
            {
              "internalType": "address payable",
              "name": "owner",
              "type": "address"
            },
            {
              "internalType": "uint256",
              "name": "price",
              "type": "uint256"
            },
            {
              "internalType": "bool",
              "name": "sold",
              "type": "bool"
            }
          ],
          "internalType": "struct NFTMarketplace.MarketItem[]",
          "name": "",
          "type": "tuple[]"
        }
      ],
      "stateMutability": "view",
      "type": "function"
    },
    {
      "inputs": [],
      "name": "fetchMyNFT",
      "outputs": [
        {
          "components": [
            {
              "internalType": "uint256",
              "name": "tokenId",
              "type": "uint256"
            },
            {
              "internalType": "address payable",
              "name": "seller",
              "type": "address"
            },
            {
              "internalType": "address payable",
              "name": "owner",
              "type": "address"
            },
            {
              "internalType": "uint256",
              "name": "price",
              "type": "uint256"
            },
            {
              "internalType": "bool",
              "name": "sold",
              "type": "bool"
            }
          ],
          "internalType": "struct NFTMarketplace.MarketItem[]",
          "name": "",
          "type": "tuple[]"
        }
      ],
      "stateMutability": "view",
      "type": "function"
    },
    {
      "inputs": [
        {
          "internalType": "uint256",
          "name": "tokenId",
          "type": "uint256"
        }
      ],
      "name": "getApproved",
      "outputs": [
        {
          "internalType": "address",
          "name": "",
          "type": "address"
        }
      ],
      "stateMutability": "view",
      "type": "function"
    },
    {
      "inputs": [],
      "name": "getListingPrice",
      "outputs": [
        {
          "internalType": "uint256",
          "name": "",
          "type": "uint256"
        }
      ],
      "stateMutability": "view",
      "type": "function"
    },
    {
      "inputs": [
        {
          "internalType": "address",
          "name": "owner",
          "type": "address"
        },
        {
          "internalType": "address",
          "name": "operator",
          "type": "address"
        }
      ],
      "name": "isApprovedForAll",
      "outputs": [
        {
          "internalType": "bool",
          "name": "",
          "type": "bool"
        }
      ],
      "stateMutability": "view",
      "type": "function"
    },
    {
      "inputs": [],
      "name": "name",
      "outputs": [
        {
          "internalType": "string",
          "name": "",
          "type": "string"
        }
      ],
      "stateMutability": "view",
      "type": "function"
    },
    {
      "inputs": [
        {
          "internalType": "uint256",
          "name": "tokenId",
          "type": "uint256"
        }
      ],
      "name": "ownerOf",
      "outputs": [
        {
          "internalType": "address",
          "name": "",
          "type": "address"
        }
      ],
      "stateMutability": "view",
      "type": "function"
    },
    {
      "inputs": [
        {
          "internalType": "uint256",
          "name": "tokenId",
          "type": "uint256"
        },
        {
          "internalType": "uint256",
          "name": "price",
          "type": "uint256"
        }
      ],
      "name": "reSellToken",
      "outputs": [],
      "stateMutability": "payable",
      "type": "function"
    },
    {
      "inputs": [
        {
          "internalType": "address",
          "name": "from",
          "type": "address"
        },
        {
          "internalType": "address",
          "name": "to",
          "type": "address"
        },
        {
          "internalType": "uint256",
          "name": "tokenId",
          "type": "uint256"
        }
      ],
      "name": "safeTransferFrom",
      "outputs": [],
      "stateMutability": "nonpayable",
      "type": "function"
    },
    {
      "inputs": [
        {
          "internalType": "address",
          "name": "from",
          "type": "address"
        },
        {
          "internalType": "address",
          "name": "to",
          "type": "address"
        },
        {
          "internalType": "uint256",
          "name": "tokenId",
          "type": "uint256"
        },
        {
          "internalType": "bytes",
          "name": "data",
          "type": "bytes"
        }
      ],
      "name": "safeTransferFrom",
      "outputs": [],
      "stateMutability": "nonpayable",
      "type": "function"
    },
    {
      "inputs": [
        {
          "internalType": "address",
          "name": "operator",
          "type": "address"
        },
        {
          "internalType": "bool",
          "name": "approved",
          "type": "bool"
        }
      ],
      "name": "setApprovalForAll",
      "outputs": [],
      "stateMutability": "nonpayable",
      "type": "function"
    },
    {
      "inputs": [
        {
          "internalType": "bytes4",
          "name": "interfaceId",
          "type": "bytes4"
        }
      ],
      "name": "supportsInterface",
      "outputs": [
        {
          "internalType": "bool",
          "name": "",
          "type": "bool"
        }
      ],
      "stateMutability": "view",
      "type": "function"
    },
    {
      "inputs": [],
      "name": "symbol",
      "outputs": [
        {
          "internalType": "string",
          "name": "",
          "type": "string"
        }
      ],
      "stateMutability": "view",
      "type": "function"
    },
    {
      "inputs": [
        {
          "internalType": "uint256",
          "name": "tokenId",
          "type": "uint256"
        }
      ],
      "name": "tokenURI",
      "outputs": [
        {
          "internalType": "string",
          "name": "",
          "type": "string"
        }
      ],
      "stateMutability": "view",
      "type": "function"
    },
    {
      "inputs": [
        {
          "internalType": "address",
          "name": "from",
          "type": "address"
        },
        {
          "internalType": "address",
          "name": "to",
          "type": "address"
        },
        {
          "internalType": "uint256",
          "name": "tokenId",
          "type": "uint256"
        }
      ],
      "name": "transferFrom",
      "outputs": [],
      "stateMutability": "nonpayable",
      "type": "function"
    },
    {
      "inputs": [
        {
          "internalType": "uint256",
          "name": "_listingPrice",
          "type": "uint256"
        }
      ],
      "name": "updateListingPrice",
      "outputs": [],
      "stateMutability": "payable",
      "type": "function"
    }
  ],
  "bytecode": "0x60806040526605543df729c0006009553480156200001c57600080fd5b506040518060400160405280601381526020017f4e4654204d657461766172736520546f6b656e000000000000000000000000008152506040518060400160405280600581526020017f4d594e46540000000000000000000000000000000000000000000000000000008152508160009080519060200190620000a1929190620000e9565b508060019080519060200190620000ba929190620000e9565b5050503373ffffffffffffffffffffffffffffffffffffffff16600a60009054906101000a90505050620001fe565b828054620000f790620001c8565b90600052602060002090601f0160209004810192826200011b576000855562000167565b82601f106200013657805160ff191683800117855562000167565b8280016001018555821562000167579182015b828111156200016657825182559160200191906001019062000149565b5b5090506200017691906200017a565b5090565b5b80821115620001955760008160009055506001016200017b565b5090565b7f4e487b7100000000000000000000000000000000000000000000000000000000600052602260045260246000fd5b60006002820490506001821680620001e157607f821691505b60208210811415620001f857620001f762000199565b5b50919050565b614264806200020e6000396000f3fe60806040526004361061012a5760003560e01c806372b3b620116100ab578063ae677aa31161006f578063ae677aa3146103ea578063b88d4fde14610406578063be9af5361461042f578063c18763f71461044b578063c87b56dd14610476578063e985e9c5146104b35761012a565b806372b3b6201461031f57806385535b251461034f5780638fafd0211461036b57806395d89b4114610396578063a22cb465146103c15761012a565b806323b872dd116100f257806323b872dd1461022857806342842e0e1461025157806345f8fa801461027a5780636352211e146102a557806370a08231146102e25761012a565b806301ffc9a71461012f57806306fdde031461016c578063081812fc14610197578063095ea7b3146101d457806312e85585146101fd575b600080fd5b34801561013b57600080fd5b5061015660048036038101906101519190612ce7565b6104f0565b6040516101639190612d2f565b60405180910390f35b34801561017857600080fd5b506101816105d2565b60405161018e9190612de3565b60405180910390f35b3480156101a357600080fd5b506101be60048036038101906101b99190612e3b565b610664565b6040516101cb9190612ea9565b60405180910390f35b3480156101e057600080fd5b506101fb60048036038101906101f69190612ef0565b6106aa565b005b34801561020957600080fd5b506102126107c2565b60405161021f9190612f3f565b60405180910390f35b34801561023457600080fd5b5061024f600480360381019061024a9190612f5a565b6107cc565b005b34801561025d57600080fd5b5061027860048036038101906102739190612f5a565b61082c565b005b34801561028657600080fd5b5061028f61084c565b60405161029c9190613103565b60405180910390f35b3480156102b157600080fd5b506102cc60048036038101906102c79190612e3b565b610b3a565b6040516102d99190612ea9565b60405180910390f35b3480156102ee57600080fd5b5061030960048036038101906103049190613125565b610bc1565b6040516103169190612f3f565b60405180910390f35b61033960048036038101906103349190613287565b610c79565b6040516103469190612f3f565b60405180910390f35b610369600480360381019061036491906132e3565b610cbb565b005b34801561037757600080fd5b50610380610eb0565b60405161038d9190613103565b60405180910390f35b3480156103a257600080fd5b506103ab611119565b6040516103b89190612de3565b60405180910390f35b3480156103cd57600080fd5b506103e860048036038101906103e3919061334f565b6111ab565b005b61040460048036038101906103ff9190612e3b565b6111c1565b005b34801561041257600080fd5b5061042d60048036038101906104289190613430565b61125b565b005b61044960048036038101906104449190612e3b565b6112bd565b005b34801561045757600080fd5b506104606114f5565b60405161046d9190613103565b60405180910390f35b34801561048257600080fd5b5061049d60048036038101906104989190612e3b565b6117e3565b6040516104aa9190612de3565b60405180910390f35b3480156104bf57600080fd5b506104da60048036038101906104d591906134b3565b6118f6565b6040516104e79190612d2f565b60405180910390f35b60007f80ac58cd000000000000000000000000000000000000000000000000000000007bffffffffffffffffffffffffffffffffffffffffffffffffffffffff1916827bffffffffffffffffffffffffffffffffffffffffffffffffffffffff191614806105bb57507f5b5e139f000000000000000000000000000000000000000000000000000000007bffffffffffffffffffffffffffffffffffffffffffffffffffffffff1916827bffffffffffffffffffffffffffffffffffffffffffffffffffffffff1916145b806105cb57506105ca8261198a565b5b9050919050565b6060600080546105e190613522565b80601f016020809104026020016040519081016040528092919081815260200182805461060d90613522565b801561065a5780601f1061062f5761010080835404028352916020019161065a565b820191906000526020600020905b81548152906001019060200180831161063d57829003601f168201915b5050505050905090565b600061066f826119f4565b6004600083815260200190815260200160002060009054906101000a900473ffffffffffffffffffffffffffffffffffffffff169050919050565b60006106b582610b3a565b90508073ffffffffffffffffffffffffffffffffffffffff168373ffffffffffffffffffffffffffffffffffffffff161415610726576040517f08c379a000000000000000000000000000000000000000000000000000000000815260040161071d906135c6565b60405180910390fd5b8073ffffffffffffffffffffffffffffffffffffffff16610745611a3f565b73ffffffffffffffffffffffffffffffffffffffff16148061077457506107738161076e611a3f565b6118f6565b5b6107b3576040517f08c379a00000000000000000000000000000000000000000000000000000000081526004016107aa90613658565b60405180910390fd5b6107bd8383611a47565b505050565b6000600954905090565b6107dd6107d7611a3f565b82611b00565b61081c576040517f08c379a0000000000000000000000000000000000000000000000000000000008152600401610813906136ea565b60405180910390fd5b610827838383611b95565b505050565b6108478383836040518060200160405280600081525061125b565b505050565b6060600061085a6007611e8f565b905060008060005b83811015610903573373ffffffffffffffffffffffffffffffffffffffff16600b60006001846108929190613739565b815260200190815260200160002060010160009054906101000a900473ffffffffffffffffffffffffffffffffffffffff1673ffffffffffffffffffffffffffffffffffffffff1614156108f0576001836108ed9190613739565b92505b80806108fb9061378f565b915050610862565b5060008267ffffffffffffffff8111156109205761091f61315c565b5b60405190808252806020026020018201604052801561095957816020015b610946612b7b565b81526020019060019003908161093e5790505b50905060005b84811015610b2f573373ffffffffffffffffffffffffffffffffffffffff16600b600060018461098f9190613739565b815260200190815260200160002060010160009054906101000a900473ffffffffffffffffffffffffffffffffffffffff1673ffffffffffffffffffffffffffffffffffffffff161415610b1c5760006001826109ec9190613739565b90506000600b60008381526020019081526020016000209050806040518060a0016040529081600082015481526020016001820160009054906101000a900473ffffffffffffffffffffffffffffffffffffffff1673ffffffffffffffffffffffffffffffffffffffff1673ffffffffffffffffffffffffffffffffffffffff1681526020016002820160009054906101000a900473ffffffffffffffffffffffffffffffffffffffff1673ffffffffffffffffffffffffffffffffffffffff1673ffffffffffffffffffffffffffffffffffffffff168152602001600382015481526020016004820160009054906101000a900460ff161515151581525050848681518110610aff57610afe6137d8565b5b6020026020010181905250600185610b179190613739565b945050505b8080610b279061378f565b91505061095f565b508094505050505090565b600080610b4683611e9d565b9050600073ffffffffffffffffffffffffffffffffffffffff168173ffffffffffffffffffffffffffffffffffffffff161415610bb8576040517f08c379a0000000000000000000000000000000000000000000000000000000008152600401610baf90613853565b60405180910390fd5b80915050919050565b60008073ffffffffffffffffffffffffffffffffffffffff168273ffffffffffffffffffffffffffffffffffffffff161415610c32576040517f08c379a0000000000000000000000000000000000000000000000000000000008152600401610c29906138e5565b60405180910390fd5b600360008373ffffffffffffffffffffffffffffffffffffffff1673ffffffffffffffffffffffffffffffffffffffff168152602001908152602001600020549050919050565b6000610c856007611eda565b6000610c916007611e8f565b9050610c9d3382611ef0565b610ca7818561210e565b610cb18184612182565b8091505092915050565b3373ffffffffffffffffffffffffffffffffffffffff16600b600084815260200190815260200160002060020160009054906101000a900473ffffffffffffffffffffffffffffffffffffffff1673ffffffffffffffffffffffffffffffffffffffff1614610d5f576040517f08c379a0000000000000000000000000000000000000000000000000000000008152600401610d5690613977565b60405180910390fd5b6009543414610da3576040517f08c379a0000000000000000000000000000000000000000000000000000000008152600401610d9a90613a09565b60405180910390fd5b6000600b600084815260200190815260200160002060040160006101000a81548160ff02191690831515021790555080600b60008481526020019081526020016000206003018190555033600b600084815260200190815260200160002060010160006101000a81548173ffffffffffffffffffffffffffffffffffffffff021916908373ffffffffffffffffffffffffffffffffffffffff16021790555030600b600084815260200190815260200160002060020160006101000a81548173ffffffffffffffffffffffffffffffffffffffff021916908373ffffffffffffffffffffffffffffffffffffffff160217905550610ea16008612385565b610eac333084611b95565b5050565b60606000610ebe6007611e8f565b90506000610ecc6008611e8f565b610ed66007611e8f565b610ee09190613a29565b90506000808267ffffffffffffffff811115610eff57610efe61315c565b5b604051908082528060200260200182016040528015610f3857816020015b610f25612b7b565b815260200190600190039081610f1d5790505b50905060005b8481101561110e573073ffffffffffffffffffffffffffffffffffffffff16600b6000600184610f6e9190613739565b815260200190815260200160002060020160009054906101000a900473ffffffffffffffffffffffffffffffffffffffff1673ffffffffffffffffffffffffffffffffffffffff1614156110fb576000600182610fcb9190613739565b90506000600b60008381526020019081526020016000209050806040518060a0016040529081600082015481526020016001820160009054906101000a900473ffffffffffffffffffffffffffffffffffffffff1673ffffffffffffffffffffffffffffffffffffffff1673ffffffffffffffffffffffffffffffffffffffff1681526020016002820160009054906101000a900473ffffffffffffffffffffffffffffffffffffffff1673ffffffffffffffffffffffffffffffffffffffff1673ffffffffffffffffffffffffffffffffffffffff168152602001600382015481526020016004820160009054906101000a900460ff1615151515815250508486815181106110de576110dd6137d8565b5b60200260200101819052506001856110f69190613739565b945050505b80806111069061378f565b915050610f3e565b508094505050505090565b60606001805461112890613522565b80601f016020809104026020016040519081016040528092919081815260200182805461115490613522565b80156111a15780601f10611176576101008083540402835291602001916111a1565b820191906000526020600020905b81548152906001019060200180831161118457829003601f168201915b5050505050905090565b6111bd6111b6611a3f565b83836123e1565b5050565b600a60009054906101000a900473ffffffffffffffffffffffffffffffffffffffff1673ffffffffffffffffffffffffffffffffffffffff163373ffffffffffffffffffffffffffffffffffffffff1614611251576040517f08c379a000000000000000000000000000000000000000000000000000000000815260040161124890613acf565b60405180910390fd5b8060098190555050565b61126c611266611a3f565b83611b00565b6112ab576040517f08c379a00000000000000000000000000000000000000000000000000000000081526004016112a2906136ea565b60405180910390fd5b6112b78484848461254e565b50505050565b6000600b600083815260200190815260200160002060030154905080341461131a576040517f08c379a000000000000000000000000000000000000000000000000000000000815260040161131190613b61565b60405180910390fd5b33600b600084815260200190815260200160002060020160006101000a81548173ffffffffffffffffffffffffffffffffffffffff021916908373ffffffffffffffffffffffffffffffffffffffff1602179055506001600b600084815260200190815260200160002060040160006101000a81548160ff0219169083151502179055506000600b600084815260200190815260200160002060020160006101000a81548173ffffffffffffffffffffffffffffffffffffffff021916908373ffffffffffffffffffffffffffffffffffffffff1602179055506113fe6008611eda565b611409303384611b95565b600a60009054906101000a900473ffffffffffffffffffffffffffffffffffffffff1673ffffffffffffffffffffffffffffffffffffffff166108fc6009549081150290604051600060405180830381858888f19350505050158015611473573d6000803e3d6000fd5b50600b600083815260200190815260200160002060010160009054906101000a900473ffffffffffffffffffffffffffffffffffffffff1673ffffffffffffffffffffffffffffffffffffffff166108fc349081150290604051600060405180830381858888f193505050501580156114f0573d6000803e3d6000fd5b505050565b606060006115036007611e8f565b905060008060005b838110156115ac573373ffffffffffffffffffffffffffffffffffffffff16600b600060018461153b9190613739565b815260200190815260200160002060020160009054906101000a900473ffffffffffffffffffffffffffffffffffffffff1673ffffffffffffffffffffffffffffffffffffffff161415611599576001836115969190613739565b92505b80806115a49061378f565b91505061150b565b5060008267ffffffffffffffff8111156115c9576115c861315c565b5b60405190808252806020026020018201604052801561160257816020015b6115ef612b7b565b8152602001906001900390816115e75790505b50905060005b848110156117d8573373ffffffffffffffffffffffffffffffffffffffff16600b60006001846116389190613739565b815260200190815260200160002060020160009054906101000a900473ffffffffffffffffffffffffffffffffffffffff1673ffffffffffffffffffffffffffffffffffffffff1614156117c55760006001826116959190613739565b90506000600b60008381526020019081526020016000209050806040518060a0016040529081600082015481526020016001820160009054906101000a900473ffffffffffffffffffffffffffffffffffffffff1673ffffffffffffffffffffffffffffffffffffffff1673ffffffffffffffffffffffffffffffffffffffff1681526020016002820160009054906101000a900473ffffffffffffffffffffffffffffffffffffffff1673ffffffffffffffffffffffffffffffffffffffff1673ffffffffffffffffffffffffffffffffffffffff168152602001600382015481526020016004820160009054906101000a900460ff1615151515815250508486815181106117a8576117a76137d8565b5b60200260200101819052506001856117c09190613739565b945050505b80806117d09061378f565b915050611608565b508094505050505090565b60606117ee826119f4565b600060066000848152602001908152602001600020805461180e90613522565b80601f016020809104026020016040519081016040528092919081815260200182805461183a90613522565b80156118875780601f1061185c57610100808354040283529160200191611887565b820191906000526020600020905b81548152906001019060200180831161186a57829003601f168201915b5050505050905060006118986125aa565b90506000815114156118ae5781925050506118f1565b6000825111156118e35780826040516020016118cb929190613bbd565b604051602081830303815290604052925050506118f1565b6118ec846125c1565b925050505b919050565b6000600560008473ffffffffffffffffffffffffffffffffffffffff1673ffffffffffffffffffffffffffffffffffffffff16815260200190815260200160002060008373ffffffffffffffffffffffffffffffffffffffff1673ffffffffffffffffffffffffffffffffffffffff16815260200190815260200160002060009054906101000a900460ff16905092915050565b60007f01ffc9a7000000000000000000000000000000000000000000000000000000007bffffffffffffffffffffffffffffffffffffffffffffffffffffffff1916827bffffffffffffffffffffffffffffffffffffffffffffffffffffffff1916149050919050565b6119fd81612629565b611a3c576040517f08c379a0000000000000000000000000000000000000000000000000000000008152600401611a3390613853565b60405180910390fd5b50565b600033905090565b816004600083815260200190815260200160002060006101000a81548173ffffffffffffffffffffffffffffffffffffffff021916908373ffffffffffffffffffffffffffffffffffffffff160217905550808273ffffffffffffffffffffffffffffffffffffffff16611aba83610b3a565b73ffffffffffffffffffffffffffffffffffffffff167f8c5be1e5ebec7d5bd14f71427d1e84f3dd0314c0f7b2291e5b200ac8c7c3b92560405160405180910390a45050565b600080611b0c83610b3a565b90508073ffffffffffffffffffffffffffffffffffffffff168473ffffffffffffffffffffffffffffffffffffffff161480611b4e5750611b4d81856118f6565b5b80611b8c57508373ffffffffffffffffffffffffffffffffffffffff16611b7484610664565b73ffffffffffffffffffffffffffffffffffffffff16145b91505092915050565b8273ffffffffffffffffffffffffffffffffffffffff16611bb582610b3a565b73ffffffffffffffffffffffffffffffffffffffff1614611c0b576040517f08c379a0000000000000000000000000000000000000000000000000000000008152600401611c0290613c53565b60405180910390fd5b600073ffffffffffffffffffffffffffffffffffffffff168273ffffffffffffffffffffffffffffffffffffffff161415611c7b576040517f08c379a0000000000000000000000000000000000000000000000000000000008152600401611c7290613ce5565b60405180910390fd5b611c88838383600161266a565b8273ffffffffffffffffffffffffffffffffffffffff16611ca882610b3a565b73ffffffffffffffffffffffffffffffffffffffff1614611cfe576040517f08c379a0000000000000000000000000000000000000000000000000000000008152600401611cf590613c53565b60405180910390fd5b6004600082815260200190815260200160002060006101000a81549073ffffffffffffffffffffffffffffffffffffffff02191690556001600360008573ffffffffffffffffffffffffffffffffffffffff1673ffffffffffffffffffffffffffffffffffffffff168152602001908152602001600020600082825403925050819055506001600360008473ffffffffffffffffffffffffffffffffffffffff1673ffffffffffffffffffffffffffffffffffffffff16815260200190815260200160002060008282540192505081905550816002600083815260200190815260200160002060006101000a81548173ffffffffffffffffffffffffffffffffffffffff021916908373ffffffffffffffffffffffffffffffffffffffff160217905550808273ffffffffffffffffffffffffffffffffffffffff168473ffffffffffffffffffffffffffffffffffffffff167fddf252ad1be2c89b69c2b068fc378daa952ba7f163c4a11628f55a4df523b3ef60405160405180910390a4611e8a8383836001612790565b505050565b600081600001549050919050565b60006002600083815260200190815260200160002060009054906101000a900473ffffffffffffffffffffffffffffffffffffffff169050919050565b6001816000016000828254019250508190555050565b600073ffffffffffffffffffffffffffffffffffffffff168273ffffffffffffffffffffffffffffffffffffffff161415611f60576040517f08c379a0000000000000000000000000000000000000000000000000000000008152600401611f5790613d51565b60405180910390fd5b611f6981612629565b15611fa9576040517f08c379a0000000000000000000000000000000000000000000000000000000008152600401611fa090613dbd565b60405180910390fd5b611fb760008383600161266a565b611fc081612629565b15612000576040517f08c379a0000000000000000000000000000000000000000000000000000000008152600401611ff790613dbd565b60405180910390fd5b6001600360008473ffffffffffffffffffffffffffffffffffffffff1673ffffffffffffffffffffffffffffffffffffffff16815260200190815260200160002060008282540192505081905550816002600083815260200190815260200160002060006101000a81548173ffffffffffffffffffffffffffffffffffffffff021916908373ffffffffffffffffffffffffffffffffffffffff160217905550808273ffffffffffffffffffffffffffffffffffffffff16600073ffffffffffffffffffffffffffffffffffffffff167fddf252ad1be2c89b69c2b068fc378daa952ba7f163c4a11628f55a4df523b3ef60405160405180910390a461210a600083836001612790565b5050565b61211782612629565b612156576040517f08c379a000000000000000000000000000000000000000000000000000000000815260040161214d90613e4f565b60405180910390fd5b8060066000848152602001908152602001600020908051906020019061217d929190612bd8565b505050565b600081116121c5576040517f08c379a00000000000000000000000000000000000000000000000000000000081526004016121bc90613ebb565b60405180910390fd5b6009543414612209576040517f08c379a000000000000000000000000000000000000000000000000000000000815260040161220090613f4d565b60405180910390fd5b6040518060a001604052808381526020013373ffffffffffffffffffffffffffffffffffffffff1681526020013073ffffffffffffffffffffffffffffffffffffffff16815260200182815260200160001515815250600b60008481526020019081526020016000206000820151816000015560208201518160010160006101000a81548173ffffffffffffffffffffffffffffffffffffffff021916908373ffffffffffffffffffffffffffffffffffffffff16021790555060408201518160020160006101000a81548173ffffffffffffffffffffffffffffffffffffffff021916908373ffffffffffffffffffffffffffffffffffffffff1602179055506060820151816003015560808201518160040160006101000a81548160ff021916908315150217905550905050612342333084611b95565b817fdebdb32cb5230ab727c9c361b16fdb2015df225c10e6a3e7f60ecd5dc5be451633308460006040516123799493929190613f6d565b60405180910390a25050565b600081600001549050600081116123d1576040517f08c379a00000000000000000000000000000000000000000000000000000000081526004016123c890613ffe565b60405180910390fd5b6001810382600001819055505050565b8173ffffffffffffffffffffffffffffffffffffffff168373ffffffffffffffffffffffffffffffffffffffff161415612450576040517f08c379a00000000000000000000000000000000000000000000000000000000081526004016124479061406a565b60405180910390fd5b80600560008573ffffffffffffffffffffffffffffffffffffffff1673ffffffffffffffffffffffffffffffffffffffff16815260200190815260200160002060008473ffffffffffffffffffffffffffffffffffffffff1673ffffffffffffffffffffffffffffffffffffffff16815260200190815260200160002060006101000a81548160ff0219169083151502179055508173ffffffffffffffffffffffffffffffffffffffff168373ffffffffffffffffffffffffffffffffffffffff167f17307eab39ab6107e8899845ad3d59bd9653f200f220920489ca2b5937696c31836040516125419190612d2f565b60405180910390a3505050565b612559848484611b95565b61256584848484612796565b6125a4576040517f08c379a000000000000000000000000000000000000000000000000000000000815260040161259b906140fc565b60405180910390fd5b50505050565b606060405180602001604052806000815250905090565b60606125cc826119f4565b60006125d66125aa565b905060008151116125f65760405180602001604052806000815250612621565b806126008461292d565b604051602001612611929190613bbd565b6040516020818303038152906040525b915050919050565b60008073ffffffffffffffffffffffffffffffffffffffff1661264b83611e9d565b73ffffffffffffffffffffffffffffffffffffffff1614159050919050565b600181111561278a57600073ffffffffffffffffffffffffffffffffffffffff168473ffffffffffffffffffffffffffffffffffffffff16146126fe5780600360008673ffffffffffffffffffffffffffffffffffffffff1673ffffffffffffffffffffffffffffffffffffffff16815260200190815260200160002060008282546126f69190613a29565b925050819055505b600073ffffffffffffffffffffffffffffffffffffffff168373ffffffffffffffffffffffffffffffffffffffff16146127895780600360008573ffffffffffffffffffffffffffffffffffffffff1673ffffffffffffffffffffffffffffffffffffffff16815260200190815260200160002060008282546127819190613739565b925050819055505b5b50505050565b50505050565b60006127b78473ffffffffffffffffffffffffffffffffffffffff16612a05565b15612920578373ffffffffffffffffffffffffffffffffffffffff1663150b7a026127e0611a3f565b8786866040518563ffffffff1660e01b81526004016128029493929190614171565b602060405180830381600087803b15801561281c57600080fd5b505af192505050801561284d57506040513d601f19601f8201168201806040525081019061284a91906141d2565b60015b6128d0573d806000811461287d576040519150601f19603f3d011682016040523d82523d6000602084013e612882565b606091505b506000815114156128c8576040517f08c379a00000000000000000000000000000000000000000000000000000000081526004016128bf906140fc565b60405180910390fd5b805181602001fd5b63150b7a0260e01b7bffffffffffffffffffffffffffffffffffffffffffffffffffffffff1916817bffffffffffffffffffffffffffffffffffffffffffffffffffffffff191614915050612925565b600190505b949350505050565b60606000600161293c84612a28565b01905060008167ffffffffffffffff81111561295b5761295a61315c565b5b6040519080825280601f01601f19166020018201604052801561298d5781602001600182028036833780820191505090505b509050600082602001820190505b6001156129fa578080600190039150507f3031323334353637383961626364656600000000000000000000000000000000600a86061a8153600a85816129e4576129e36141ff565b5b04945060008514156129f5576129fa565b61299b565b819350505050919050565b6000808273ffffffffffffffffffffffffffffffffffffffff163b119050919050565b600080600090507a184f03e93ff9f4daa797ed6e38ed64bf6a1f0100000000000000008310612a86577a184f03e93ff9f4daa797ed6e38ed64bf6a1f0100000000000000008381612a7c57612a7b6141ff565b5b0492506040810190505b6d04ee2d6d415b85acef81000000008310612ac3576d04ee2d6d415b85acef81000000008381612ab957612ab86141ff565b5b0492506020810190505b662386f26fc100008310612af257662386f26fc100008381612ae857612ae76141ff565b5b0492506010810190505b6305f5e1008310612b1b576305f5e1008381612b1157612b106141ff565b5b0492506008810190505b6127108310612b40576127108381612b3657612b356141ff565b5b0492506004810190505b60648310612b635760648381612b5957612b586141ff565b5b0492506002810190505b600a8310612b72576001810190505b80915050919050565b6040518060a0016040528060008152602001600073ffffffffffffffffffffffffffffffffffffffff168152602001600073ffffffffffffffffffffffffffffffffffffffff168152602001600081526020016000151581525090565b828054612be490613522565b90600052602060002090601f016020900481019282612c065760008555612c4d565b82601f10612c1f57805160ff1916838001178555612c4d565b82800160010185558215612c4d579182015b82811115612c4c578251825591602001919060010190612c31565b5b509050612c5a9190612c5e565b5090565b5b80821115612c77576000816000905550600101612c5f565b5090565b6000604051905090565b600080fd5b600080fd5b60007fffffffff0000000000000000000000000000000000000000000000000000000082169050919050565b612cc481612c8f565b8114612ccf57600080fd5b50565b600081359050612ce181612cbb565b92915050565b600060208284031215612cfd57612cfc612c85565b5b6000612d0b84828501612cd2565b91505092915050565b60008115159050919050565b612d2981612d14565b82525050565b6000602082019050612d446000830184612d20565b92915050565b600081519050919050565b600082825260208201905092915050565b60005b83811015612d84578082015181840152602081019050612d69565b83811115612d93576000848401525b50505050565b6000601f19601f8301169050919050565b6000612db582612d4a565b612dbf8185612d55565b9350612dcf818560208601612d66565b612dd881612d99565b840191505092915050565b60006020820190508181036000830152612dfd8184612daa565b905092915050565b6000819050919050565b612e1881612e05565b8114612e2357600080fd5b50565b600081359050612e3581612e0f565b92915050565b600060208284031215612e5157612e50612c85565b5b6000612e5f84828501612e26565b91505092915050565b600073ffffffffffffffffffffffffffffffffffffffff82169050919050565b6000612e9382612e68565b9050919050565b612ea381612e88565b82525050565b6000602082019050612ebe6000830184612e9a565b92915050565b612ecd81612e88565b8114612ed857600080fd5b50565b600081359050612eea81612ec4565b92915050565b60008060408385031215612f0757612f06612c85565b5b6000612f1585828601612edb565b9250506020612f2685828601612e26565b9150509250929050565b612f3981612e05565b82525050565b6000602082019050612f546000830184612f30565b92915050565b600080600060608486031215612f7357612f72612c85565b5b6000612f8186828701612edb565b9350506020612f9286828701612edb565b9250506040612fa386828701612e26565b9150509250925092565b600081519050919050565b600082825260208201905092915050565b6000819050602082019050919050565b612fe281612e05565b82525050565b6000612ff382612e68565b9050919050565b61300381612fe8565b82525050565b61301281612d14565b82525050565b60a08201600082015161302e6000850182612fd9565b5060208201516130416020850182612ffa565b5060408201516130546040850182612ffa565b5060608201516130676060850182612fd9565b50608082015161307a6080850182613009565b50505050565b600061308c8383613018565b60a08301905092915050565b6000602082019050919050565b60006130b082612fad565b6130ba8185612fb8565b93506130c583612fc9565b8060005b838110156130f65781516130dd8882613080565b97506130e883613098565b9250506001810190506130c9565b5085935050505092915050565b6000602082019050818103600083015261311d81846130a5565b905092915050565b60006020828403121561313b5761313a612c85565b5b600061314984828501612edb565b91505092915050565b600080fd5b600080fd5b7f4e487b7100000000000000000000000000000000000000000000000000000000600052604160045260246000fd5b61319482612d99565b810181811067ffffffffffffffff821117156131b3576131b261315c565b5b80604052505050565b60006131c6612c7b565b90506131d2828261318b565b919050565b600067ffffffffffffffff8211156131f2576131f161315c565b5b6131fb82612d99565b9050602081019050919050565b82818337600083830152505050565b600061322a613225846131d7565b6131bc565b90508281526020810184848401111561324657613245613157565b5b613251848285613208565b509392505050565b600082601f83011261326e5761326d613152565b5b813561327e848260208601613217565b91505092915050565b6000806040838503121561329e5761329d612c85565b5b600083013567ffffffffffffffff8111156132bc576132bb612c8a565b5b6132c885828601613259565b92505060206132d985828601612e26565b9150509250929050565b600080604083850312156132fa576132f9612c85565b5b600061330885828601612e26565b925050602061331985828601612e26565b9150509250929050565b61332c81612d14565b811461333757600080fd5b50565b60008135905061334981613323565b92915050565b6000806040838503121561336657613365612c85565b5b600061337485828601612edb565b92505060206133858582860161333a565b9150509250929050565b600067ffffffffffffffff8211156133aa576133a961315c565b5b6133b382612d99565b9050602081019050919050565b60006133d36133ce8461338f565b6131bc565b9050828152602081018484840111156133ef576133ee613157565b5b6133fa848285613208565b509392505050565b600082601f83011261341757613416613152565b5b81356134278482602086016133c0565b91505092915050565b6000806000806080858703121561344a57613449612c85565b5b600061345887828801612edb565b945050602061346987828801612edb565b935050604061347a87828801612e26565b925050606085013567ffffffffffffffff81111561349b5761349a612c8a565b5b6134a787828801613402565b91505092959194509250565b600080604083850312156134ca576134c9612c85565b5b60006134d885828601612edb565b92505060206134e985828601612edb565b9150509250929050565b7f4e487b7100000000000000000000000000000000000000000000000000000000600052602260045260246000fd5b6000600282049050600182168061353a57607f821691505b6020821081141561354e5761354d6134f3565b5b50919050565b7f4552433732313a20617070726f76616c20746f2063757272656e74206f776e6560008201527f7200000000000000000000000000000000000000000000000000000000000000602082015250565b60006135b0602183612d55565b91506135bb82613554565b604082019050919050565b600060208201905081810360008301526135df816135a3565b9050919050565b7f4552433732313a20617070726f76652063616c6c6572206973206e6f7420746f60008201527f6b656e206f776e6572206f7220617070726f76656420666f7220616c6c000000602082015250565b6000613642603d83612d55565b915061364d826135e6565b604082019050919050565b6000602082019050818103600083015261367181613635565b9050919050565b7f4552433732313a2063616c6c6572206973206e6f7420746f6b656e206f776e6560008201527f72206f7220617070726f76656400000000000000000000000000000000000000602082015250565b60006136d4602d83612d55565b91506136df82613678565b604082019050919050565b60006020820190508181036000830152613703816136c7565b9050919050565b7f4e487b7100000000000000000000000000000000000000000000000000000000600052601160045260246000fd5b600061374482612e05565b915061374f83612e05565b9250827fffffffffffffffffffffffffffffffffffffffffffffffffffffffffffffffff038211156137845761378361370a565b5b828201905092915050565b600061379a82612e05565b91507fffffffffffffffffffffffffffffffffffffffffffffffffffffffffffffffff8214156137cd576137cc61370a565b5b600182019050919050565b7f4e487b7100000000000000000000000000000000000000000000000000000000600052603260045260246000fd5b7f4552433732313a20696e76616c696420746f6b656e2049440000000000000000600082015250565b600061383d601883612d55565b915061384882613807565b602082019050919050565b6000602082019050818103600083015261386c81613830565b9050919050565b7f4552433732313a2061646472657373207a65726f206973206e6f74206120766160008201527f6c6964206f776e65720000000000000000000000000000000000000000000000602082015250565b60006138cf602983612d55565b91506138da82613873565b604082019050919050565b600060208201905081810360008301526138fe816138c2565b9050919050565b7f4f6e6c79206974656d206f776e65722063616e20706572666f726d207468697360008201527f206f7065726174696f6e00000000000000000000000000000000000000000000602082015250565b6000613961602a83612d55565b915061396c82613905565b604082019050919050565b6000602082019050818103600083015261399081613954565b9050919050565b7f5072696365206d75737420626520657175616c20746f206c697374696e67207060008201527f7269636500000000000000000000000000000000000000000000000000000000602082015250565b60006139f3602483612d55565b91506139fe82613997565b604082019050919050565b60006020820190508181036000830152613a22816139e6565b9050919050565b6000613a3482612e05565b9150613a3f83612e05565b925082821015613a5257613a5161370a565b5b828203905092915050565b7f6f6e6c79206f776e6572206f6620746865206d61726b6574706c61636520636160008201527f6e206368616e676520746865206c697374696e67207072696365000000000000602082015250565b6000613ab9603a83612d55565b9150613ac482613a5d565b604082019050919050565b60006020820190508181036000830152613ae881613aac565b9050919050565b7f506c65617365207375626d6974207468652061736b696e67207072696365206960008201527f6e206f7264657220746f20636f6d706c65746520746865207075726368617365602082015250565b6000613b4b604083612d55565b9150613b5682613aef565b604082019050919050565b60006020820190508181036000830152613b7a81613b3e565b9050919050565b600081905092915050565b6000613b9782612d4a565b613ba18185613b81565b9350613bb1818560208601612d66565b80840191505092915050565b6000613bc98285613b8c565b9150613bd58284613b8c565b91508190509392505050565b7f4552433732313a207472616e736665722066726f6d20696e636f72726563742060008201527f6f776e6572000000000000000000000000000000000000000000000000000000602082015250565b6000613c3d602583612d55565b9150613c4882613be1565b604082019050919050565b60006020820190508181036000830152613c6c81613c30565b9050919050565b7f4552433732313a207472616e7366657220746f20746865207a65726f2061646460008201527f7265737300000000000000000000000000000000000000000000000000000000602082015250565b6000613ccf602483612d55565b9150613cda82613c73565b604082019050919050565b60006020820190508181036000830152613cfe81613cc2565b9050919050565b7f4552433732313a206d696e7420746f20746865207a65726f2061646472657373600082015250565b6000613d3b602083612d55565b9150613d4682613d05565b602082019050919050565b60006020820190508181036000830152613d6a81613d2e565b9050919050565b7f4552433732313a20746f6b656e20616c7265616479206d696e74656400000000600082015250565b6000613da7601c83612d55565b9150613db282613d71565b602082019050919050565b60006020820190508181036000830152613dd681613d9a565b9050919050565b7f45524337323155524953746f726167653a2055524920736574206f66206e6f6e60008201527f6578697374656e7420746f6b656e000000000000000000000000000000000000602082015250565b6000613e39602e83612d55565b9150613e4482613ddd565b604082019050919050565b60006020820190508181036000830152613e6881613e2c565b9050919050565b7f5072696365206d75737420626520616c206c6573742031000000000000000000600082015250565b6000613ea5601783612d55565b9150613eb082613e6f565b602082019050919050565b60006020820190508181036000830152613ed481613e98565b9050919050565b7f50726963206d75737420626520657175616c20746f206c697374696e6720707260008201527f6963650000000000000000000000000000000000000000000000000000000000602082015250565b6000613f37602383612d55565b9150613f4282613edb565b604082019050919050565b60006020820190508181036000830152613f6681613f2a565b9050919050565b6000608082019050613f826000830187612e9a565b613f8f6020830186612e9a565b613f9c6040830185612f30565b613fa96060830184612d20565b95945050505050565b7f436f756e7465723a2064656372656d656e74206f766572666c6f770000000000600082015250565b6000613fe8601b83612d55565b9150613ff382613fb2565b602082019050919050565b6000602082019050818103600083015261401781613fdb565b9050919050565b7f4552433732313a20617070726f766520746f2063616c6c657200000000000000600082015250565b6000614054601983612d55565b915061405f8261401e565b602082019050919050565b6000602082019050818103600083015261408381614047565b9050919050565b7f4552433732313a207472616e7366657220746f206e6f6e20455243373231526560008201527f63656976657220696d706c656d656e7465720000000000000000000000000000602082015250565b60006140e6603283612d55565b91506140f18261408a565b604082019050919050565b60006020820190508181036000830152614115816140d9565b9050919050565b600081519050919050565b600082825260208201905092915050565b60006141438261411c565b61414d8185614127565b935061415d818560208601612d66565b61416681612d99565b840191505092915050565b60006080820190506141866000830187612e9a565b6141936020830186612e9a565b6141a06040830185612f30565b81810360608301526141b28184614138565b905095945050505050565b6000815190506141cc81612cbb565b92915050565b6000602082840312156141e8576141e7612c85565b5b60006141f6848285016141bd565b91505092915050565b7f4e487b7100000000000000000000000000000000000000000000000000000000600052601260045260246000fdfea2646970667358221220724381a26dde614062024c799d0d6108ebe0dfab4f29b882237a4efcdbb76b2064736f6c63430008090033",
  "linkReferences": {},
  "deployedLinkReferences": {}
}